:10000000F0270020393D0000353D0000353D00005F
:1000100000000000000000000000000000000000E0
:10002000000000000000000000000000353D00005E
:100030000000000000000000353D0000353D0000DC
:10004000353D0000353D0000353D0000353D0000E8
:1000500069080000353D0000353D0000411B0000EF
:10006000353D0000C5350000D5350000E535000000
:10007000F535000005360000153600008D0900003A
:100080009D090000AD090000353D0000353D000030
:10009000353D00000000000000000000353D00007C
:1000A000353D0000353D0000353D0000353D000088
:1000B0000000000010B5064C2378002B07D1054B3B
:1000C000002B02D0044800E000BF0123237010BDC4
:1000D00008010020000000007C540000084B10B50F
:1000E000002B03D00749084800E000BF0748036819
:1000F000002B00D110BD064B002BFBD09847F9E731
:10010000000000000C0100207C5400007C54000022
:1001100000000000014B1B787047C04624010020FE
:1001200010B50248024B984710BDC04694520000DB
:100130008D42000010B50248024B984710BDC046E2
:10014000805200008D42000010B5034B98470348D1
:10015000034B984710BDC046D50300007052000005
:100160008D4200000122024B1A7001207047C046E8
:10017000240100200022014B1A7070472401002046
:100180000120704701207047014B18787047C04626
:100190002501002010B5064B9847C378054A137017
:1001A0000120012B00D010BD034B9847FBE7C04650
:1001B000C9030000250100206501000010B5044BB3
:1001C0001B78012B00D010BD024B9847FBE7C046BF
:1001D000250100207501000010B5114B1A7853B2AB
:1001E000002B05DB602313400020402B0CD010BDFA
:1001F000602313400020402BF9D1094B5B78002B82
:10020000F5D1084B9847F2E7054B5B78002BEED110
:10021000034BDB88002BEAD0034B9847E7E7C04647
:1002200068060020850100008101000010B5114B17
:100230001B681A689478D3781B022343D21803787A
:10024000C018904210D24378042B0FD08B420AD0B2
:100250000378C018904205D24378042B08D08B4213
:10026000F6D100E0002010BD0020FCE70020FAE7F6
:100270000020F8E73401002010B5034B5B887F2095
:100280001840024B984710BD680600205D1300001F
:1002900070B5194B1B780022002B29D0174B1B6817
:1002A0001B681C79844223D9154A13609A78DC783C
:1002B000240214431C19A3421CD20025012607E086
:1002C0000F4A13600FE01A789B183500A3420CD236
:1002D0005A78042AF7D19A788242F4D1DA788A429D
:1002E000F1D1002DECD1012202E0054A1360002279
:1002F000100070BD0022FBE7300100203401002017
:1003000038010020F0B5C64600B504000021134BAB
:100310009847051E03D1280004BC9046F0BD104B41
:100320001B685B68A200D3589846DB6898470100B9
:1003300020000A4B9847051EEDD00A4B1C680A4E58
:100340000A4F05212000B047041E02D08078B8472C
:10035000F7E743465B689847DDE7C0469102000037
:1003600034010020380100202D020000751000002B
:10037000F8B505000F4B9847002819D00E4B1C68A4
:100380000E4E0F4F05212000B047041E09D00379FF
:10039000427912021A43C1788078B8470028F1D117
:1003A00006E0084B1B685B68AD00EB581B6898477C
:1003B000F8BDC04691020000380100202D02000067
:1003C000CD10000034010020014B18687047C04672
:1003D0003801002010B5014B984710BD0D140000E6
:1003E00070B50E4B1B78002B11D00D4B1B681B6892
:1003F0001B79002B0BD000240A4E094D2000B0477A
:100400000134E4B22B681B681B79A342F6D80022A2
:10041000024B1A700132044B1A8070BD300100206B
:1004200034010020050300002601002070B50E4BAA
:100430001B78002B17D00D4B1B681A681279002A05
:1004400011D00024094D06E00134E4B22B681A688B
:100450001279A24207D95B68A200D3581B69002B0E
:10046000F2D09847F0E770BD300100203401002041
:10047000F8B5B04B00229A811A615A611B785AB2C2
:10048000002A13DB60221A4200D1B8E0A94B1A7887
:100490001F231340012B00D189E1A64B1A781F239B
:1004A00013400020022B00D1A9E1F8BDA14AD28857
:1004B0000020002AF9D060211942E7D11F210B400A
:1004C00007D19C494978062921D0082967D00029FD
:1004D00016D0012B6BD0022BD8D1964B5B78002025
:1004E000002B00D05FE1022AD0D1924B1879924BB9
:1004F0009847924B188002211800914B9847DFE0F3
:10050000022AC3D102318F488D4B9847D8E0894BDE
:100510005A88130A022B23D0D9B202290FD9032BF0
:1005200034D00F2B00D03BE1874B98680028ADD02A
:100530008378C17809021943814B984707E0012B62
:1005400000D02DE1804B186801787D4B9847794B9E
:10055000DA889B89934200D8B2E0764B9A81AFE06B
:10056000D2B2794B1B685B7C934200D88EE7764B06
:100570005B68D200D0588378C17809021943704B68
:1005800098476C4B9B6802225A70E0E7FF231342A6
:1005900000D07BE704216D48694B9847D7E7012AD3
:1005A00000D073E701216A48654B984788E06149AC
:1005B00049780A298FD1012A00D067E7644B1B785C
:1005C000002B00D162E75B4B1C79624B1D682B68E6
:1005D0001B79A34200D859E7002120005E4B9847C1
:1005E000002800D152E76B68A400E358DB68984705
:1005F0005A4B187001211800514B984760E01F2298
:1006000013405FD14B4A5278032A00D1CAE0D1B2DD
:1006100003293BD9052A4BD0092A53D1454BDB8806
:10062000002B00D032E74E4B9847002800D12DE731
:10063000404B9A78444B1B685B7C9A4200DD25E76F
:10064000484B98473B4B9B78414A1370002B37D05F
:10065000454A94466344DB003B4A5268D3183D4AFE
:1006600013601B681B79002B2AD000243F4D160015
:1006700000212000A847002800D107E70134E4B298
:1006800033681B681B79A342F2D819E0012A19D1FB
:10069000284BDB88002B00D0F8E6264B5B88012B2B
:1006A00000D0F3E6274A138802218B43138007E02A
:1006B000204BDB88002B00D0E8E62D4A1D4B1A6149
:1006C0000120F2E6012B0AD0022B00D0DEE6194B06
:1006D0005B78012B1FD0032B50D0002063E0154A1C
:1006E00052780B2AF0D1134BDB88002B00D0CDE6DB
:1006F000174B1B78002B00D1C8E60E4B1D795C8888
:1007000028001C4B9847002800D1BFE6E1B2280022
:10071000164B984747E0074BDB88002B00D0B5E627
:10072000044B5B88002B00D0B0E6024B1879124BCB
:10073000984738E068060020D51100002801002005
:100740007D130000260100201400002088000020F6
:100750003001002034010020910200002C01002013
:100760006D130000E1030000FFFFFF1F7103000095
:10077000790200000503000019130000344BDB88E8
:10078000002B00D082E6324B5B88002B00D07DE648
:100790002F4C20792F4B984720792F4B984702E018
:1007A000002000E00020002800D07EE66EE62B4B03
:1007B0001B780020002B00D177E6254B1C79284BB5
:1007C0001D682B681B79A34200D86EE6002120002B
:1007D000244B9847002800D15FE66B68A200D558EB
:1007E000EB689847010020001E4B9847002800D175
:1007F00053E6AB689847002800D056E64DE6174B05
:100800001B78002B00D150E6154B1B681A68127933
:10081000002A1AD00025134E114F5B68AA00D45845
:10082000E368984701002800B047002800D13CE663
:10083000A3689847002800D037E60135EDB23B6841
:100840001A681279AA42E8D82FE600202DE6C046A1
:100850006806002039100000E91100003001002076
:10086000340100209102000070B50022104B1A7074
:10087000002310491F25104E0D4C0AE00D4908E0D9
:1008800023780133DBB223700F2B10D800211F2BEC
:10089000F4D9280018400122824008691042EFD0A4
:1008A0000A619B009B59002BEAD09847E8E770BD8E
:1008B000310300200018004034030020044A13785C
:1008C00002210B43137053785BB2002BFBDB7047A4
:1008D0000018004000B583B0124A936940210B43D1
:1008E000936101A900230B7005200F4B9847052049
:1008F0000E4B98470E4A137801210B43137053781F
:100900005BB2002BFBDB0B4B19004031002204C310
:100910009942FCD11022084B1A60084B984703B04B
:1009200000BDC04600040040DD3B0000513B00001C
:10093000001800403403002000E100E0BD08000082
:10094000F0B5C64600B580000E4BC7583B68DE6A5E
:10095000BB6B7A6B13401E4000240B4B984602E0A1
:100960000434302C0AD04346E5583542F8D03B19C0
:100970005B68380098473B68DD62F1E704BC90464D
:10098000F0BDC04674030020AC52000010B500203A
:10099000014B984710BDC0464109000010B5012029
:1009A000014B984710BDC0464109000010B5022018
:1009B000014B984710BDC0464109000010B584B0F6
:1009C00003AB00221A7003325A70013A9A70013A4E
:1009D000DA70274B1B78834207D0002807D1244BBD
:1009E0001B78002B23D1224B187004B010BD03AB31
:1009F0001B5C204AD25CFF2A00D1FEE7EFF3108295
:100A000051424A41019272B6BFF35F8F00211A4AE8
:100A10001170019C1749CA5C0132CA54002CDED007
:100A20000122154B1A70BFF35F8F62B6D7E703AA96
:100A3000D35C104AD25C002A00D1FEE7EFF31082AB
:100A400051424A41029272B6BFF35F8F00210A4AB7
:100A50001170029C0749CA5C013ACA54002CC2D0EA
:100A60000122054B1A70BFF35F8F62B6BBE7C04629
:100A7000340200202C0300209000002043060BD0FD
:100A80000F2303405B00C0091818023883001818B0
:100A90008000024B181870470020FCE7440100203A
:100AA000F0B5D6464F464646C0B589468D796BB2FD
:100AB000002B26DB28005E4B984704000F272F40B1
:100AC000038A98464B461B889A46837C5B076AD408
:100AD000E36853441E00E360A3689E4200D874E0BC
:100AE000E360A37C01229343A3742368002B03D00B
:100AF000E1682A00002098471CBC90469946A2460F
:100B0000F0BD28004A4B984704000F272F40038A66
:100B100098464B465E88C3689C466644C6608168BA
:100B20008E4225D08D1BADB2424B9D4206D91D0091
:100B300041461800404B98476D1AADB2A27C002385
:100B4000920707D5414628003C4B984789B24B4253
:100B50004B41DBB25B00A27C02218A431343A374A6
:100B6000626892192B0039003548364CA047C3E71C
:100B7000837C9B070BD4837C01229343837403689B
:100B8000002BB9D02A00310000209847B4E7837CBD
:100B90000222934383744268921900233900284843
:100BA000284CA047A8E74368C268944663441E00E7
:100BB00041468068214B98470A007B1E9B012249D1
:100BC00059183000214B984782E74A46928852458F
:100BD00000D086E79E4200D183E79B1B9DB2154B58
:100BE0009D4216D91D0041461800134B98476B1AB9
:100BF0009BB2984514D9A37C04221343A3747A1E94
:100C00009201114BD218434639000D48104CA047B1
:100C100072E741462800094B98476B1A9BB2E8E7F8
:100C20006268921939000648094CA04764E7C0463B
:100C30007D0A0000FF1F000081410000AD3F000061
:100C400000050020591A00008003002069420000BE
:100C5000AD1A000010B50522054B1A70054C802115
:100C60002000054B984700212000044B984710BDF9
:100C70004201002000050020AD190000D31900003A
:100C800070B5084C06212000074DA847042120001C
:100C9000A84702212000054B98470220044B9847A3
:100CA00070BDC04600050020ED140000CD1400000A
:100CB000BD09000070B5134B9B8C9B061CD41149D9
:100CC000D022CB681340D02BFBD10F4C0221200047
:100CD0000E4B9847042120000D4DA8470D4A0621D0
:100CE00020000D4B984706212000A84703200B4BFE
:100CF00098470B4B984770BD02491022CB681A42A7
:100D0000FCD0E2E70008004000050020ED140000E0
:100D1000CD140000810C0000A9140000BD090000E2
:100D20003501000030B583B004001E4B9847802386
:100D30002268937201AD28001B4B984703236B7008
:100D400029002000194B984719492000194B984752
:100D5000194B022200212000184DA847184B0022F1
:100D600000212000A847174B012200212000A8479E
:100D7000022200212000144DA8470022002120005B
:100D8000A847012200212000A84721680B890F4AAB
:100D90001A408023DB0013430B8100220C4B1A7096
:100DA00003B030BDE1030000F91600000917000090
:100DB00080060020FD1A00000D0F0000091500003C
:100DC00019120000110E000059150000FFF3FFFF7B
:100DD0004201002010B50322074B1A70074C084946
:100DE0002000084B9847084B9A68002300212000F8
:100DF000064CA04710BDC04642010020000500205F
:100E000080060020FD1A000068060020591A000024
:100E100010B589794BB2002B06DB0E4B1B78022BE9
:100E20000FD0032B11D010BD0A4B1B78012B05D01E
:100E3000042BF8D10848094B9847F4E7084B98472A
:100E4000F1E70422034B1A70EDE70348034B984780
:100E5000E9E7C0464201002000050020AD1900006E
:100E6000D50D000070B5204B1B88204A9489E41AE8
:100E7000A4B2002C18D11E4A11885B189BB21380B3
:100E80001A4AD2889A4223D01A4B1B78002B1FD1C2
:100E9000164B5B69002B23D09847002820D00022F6
:100EA000114B1A80114B9C893F2C19D90022114BF0
:100EB0001A7040240C4D2B880C4A9268D2182300DB
:100EC00000210D480D4EB0472B88E4182C8070BDD2
:100ED00004220B4B1A700B4907480B4B9847F6E757
:100EE0000122044B1A70E5E73E010020680600204D
:100EF000400100203C01002000050020591A00009C
:100F00004201002080060020FD1A000010B50C00F0
:100F10002C4B1B78002B07D02B4B1B69002B00D0D0
:100F200098470022274B1A702388082B02D0274BA2
:100F3000984710BD244A264B197811705978517082
:100F4000D8780002997809185180587900021979E7
:100F500009189180D97909029B795B18D3801D4BC0
:100F60009847002816D0184B1B787F2B15D8164BA6
:100F7000DB88002B22D00023174A1380174A1380E6
:100F80000122104B1A704023114A00211448154CBD
:100F9000A047CEE70D4B9847CBE700230E4A1380BE
:100FA0000E4A13800222074B1A704023084A002180
:100FB0000B480C4CA0470C4B9847BAE70B4B984793
:100FC000B7E7C0464201002068060020550C00002B
:100FD0008006002071040000400100203E01002036
:100FE00000050020AD1A0000650E0000D50D0000C0
:100FF00010B5024B9847024B984710BD2D040000D6
:101000001501000010B5074C04212000064B98473D
:1010100002212000054B98470120054B9847054BBE
:10102000984710BD00050020ED140000CD1400000D
:10103000BD0900002101000010B5040001000A48AC
:101040000A4B984720000A4B9847837CDB070AD558
:10105000837C0122934383740368002B03D0C1680F
:1010600022000120984710BD000500204D19000006
:101070007D0A000070B582B0040001AD28000D4B60
:10108000984720000C4B98472C700023EB700B4EB8
:10109000290030000A4B98470F21214000223000E0
:1010A000084B9847002221003000074B984702B0B8
:1010B00070BDC046F9160000391000000005002080
:1010C000091700003115000029160000F0B583B0A3
:1010D00005000F00140001AE3000364B9847357004
:1010E000082C13D8002201AB5A702800324B9847C5
:1010F000048203213940012938D0022943D000233A
:1011000003293DD1042201ABDA7032E0102C03D860
:10111000012201AB5A70E8E7202C03D8022201AB70
:101120005A70E2E7402C03D8032201AB5A70DCE787
:10113000802C03D8042201AB5A70D6E780235B00D1
:101140009C4203D8052201AB5A70CEE780239B0056
:101150009C4203D8062201AB5A70C6E7174A002307
:1011600094420DD8072201AB5A70BEE7022201ABB0
:10117000DA7001A91248134B98470023002806D0C3
:10118000180003B0F0BD032201ABDA70F1E70F21C4
:1011900029400B4C0C4B002220000C4EB047002283
:1011A000290020000A4EB047012229002000B04744
:1011B0000123E5E7F91600007D0A0000FF030000A7
:1011C0000005002009170000A10A00000915000011
:1011D0005915000010B501000148024B984710BD99
:1011E000000500208319000010B504000F23034000
:1011F0000020062B00D910BD21000448044B98475D
:101200002000044B98470120F5E7C0460005002068
:10121000AD1900003910000070B5344B1B78012B5C
:101220000AD0022B5FD0324B1B69002B00D09847AD
:1012300000222E4B1A7070BD0D882D4B9B892D4AB4
:1012400014886219934201DA1D1BADB2284B9868CD
:1012500000192A002849294B98476419A4B2254B44
:101260001C80402D0AD0224B9C815B69002B02D050
:101270009847002814D0224B9847DCE71C4BDA88AB
:10128000204B1B881B199A42EDDD194B9B89A34209
:101290000CD04023184A00211B481C4CA047CAE729
:1012A0000522124B1A701A4B9847C4E7104B5B6922
:1012B000002B0BD0984700280FD012490D4A0B88FD
:1012C00010881B180B8000231380E2E70522074BD0
:1012D0001A7000200E4B9847ADE70522034B1A7099
:1012E0000B4B9847A7E70B4B9847A4E74201002018
:1012F000680600203E0100208006002069420000B0
:10130000D50D00004001002000050020AD1A0000AE
:10131000E9110000650E000070B504000F230340C2
:101320000020062B00D970BD2000094B984705000E
:1013300021000848084B9847AB7C0120DB07F2D519
:10134000AB7C01229343AB742B6898470120EAE7FA
:101350007D0A000000050020D3190000024B1B6825
:10136000802210439872704700050020024B1B68D2
:10137000987A4006400E704700050020014B9860A7
:10138000998170476806002070B50320164B984776
:10139000164C2268138901218B431381144A0331AF
:1013A0002000144EB047144A00212000B047134AD1
:1013B00001212000B047124A02212000B047042139
:1013C0002000104DA84700212000A847012120003F
:1013D000A84702212000A8470B4A06212000B04759
:1013E00006212000A84770BDBD09000000050020AF
:1013F00005100000A9140000F10F0000250D0000E9
:10140000B50C0000CD140000810C000070B582B056
:10141000EFF310835A425341009372B6BFF35F8FCC
:101420000026184B1E70009C01AD2800164B9847F3
:10143000AE70164E2A0016493000164B9847300001
:10144000154B9847154B9B8C9B0614D41349D022FF
:10145000CB681340D02BFBD10120114B9847114B87
:101460009847002C05D00122064B1A70BFF35F8FFE
:1014700062B602B070BD09491022CB681A42FCD096
:10148000EAE7C0469000002021220000000500206D
:1014900000500041312200002D1B000000080040D8
:1014A000BD0900008913000010B50B002E339B000E
:1014B0001A50AA2252004900835A034C095B0B437D
:1014C0008352002010BDC046F05200004900064B78
:1014D000CB5A02689383AB214900425A1A434252C5
:1014E0000268138300207047F05200004900054B4A
:1014F000CA5AAB214900435A9343435203689A8224
:1015000000207047F052000010B58C00A41834344D
:10151000A4000419636040185930FF300378034970
:101520008A5C13430370002010BDC04600530000C6
:1015300010B58B009B1834339B00C31800245C60EB
:1015400040185930FF30034B9A5C03789343037083
:10155000002010BD0053000070B50F230B40C418CD
:101560006134FF3425782F4EB65C35432570002A50
:1015700029D1002B12D103250A24FF3406683555E2
:10158000032A09D149B2002944DB02685B01D31860
:101590000A33FF3320221A70002070BD4CB2002C99
:1015A00008DB5C010568AC4664440A34FF3401255D
:1015B0002570E5E75C010568AC4664440A34FF34F5
:1015C00002252570DCE7012A1AD1002B05D102681B
:1015D0000C210A23FF33D154DEE749B2002907DB8F
:1015E00002685B01D3180A33FF3304221A70D3E771
:1015F00002685B01D3180A33FF3308221A70CBE765
:10160000022ABDD102685B01D3180A33FF331022CE
:101610001A70C1E702685B01D3180A33FF33402216
:101620001A70B9E70053000070B50F230B40C418BF
:101630006134FF342F4DAE5C2578B5432570002A08
:1016400029D1002B12D10325842464000668355566
:10165000032A09D149B2002944DB02685B01D3188F
:101660000933FF3320221A70002070BD4CB2002CC9
:1016700008DB5C010568AC4664440934FF3401258D
:101680002570E5E75C010568AC4664440934FF3425
:1016900002252570DCE7012A1AD1002B05D102684A
:1016A0000C210933FF33D154DEE749B2002907DBAF
:1016B00002685B01D3180933FF3304221A70D3E7A1
:1016C00002685B01D3180933FF3308221A70CBE795
:1016D000022ABDD102685B01D3180933FF331022FF
:1016E0001A70C1E702685B01D3180933FF33402247
:1016F0001A70B9E700530000002303704370837031
:101700000133C37070470000F0B50C780F232340FD
:1017100064B2CA78042A70D89200894DAA589746B4
:10172000026808335B0100219954002282E05C01C9
:1017300002689446644480225200A55CE43A6D0736
:1017400078D1E432A65C7025E43A2E4272D15F3D36
:10175000E432A5541A00083252010468A4182F3547
:10176000657100688218802010718A78002A1FD065
:101770005801744A121854688020000604435460CB
:1017800054692043506107254C785A016D4B9B18D2
:1017900058682C4024076C4E3040204358604978EC
:1017A0005A692940090732400A435A61002241E040
:1017B0005801644A1218506840004008506050694F
:1017C000400040085061DEE7002C35DB5D01026817
:1017D0009446654480225200AE5CE43A760729D1F3
:1017E00080267600AA5D02273A43AA5502681800AF
:1017F00008304001121840205071E20F4F785D0010
:10180000AD182D014F4E7519686807243C40240718
:101810004D4E3040204368608978002900D088E030
:101820005B009B181B01474AD3185A6852005208A4
:101830005A6000221000F0BD5D01026894466544C4
:1018400080225200AF5C7026E43A3742F2D19036E3
:10185000AA5D20273A43AA550268180008304001C3
:10186000121880201071C8E7002C17DB5D01026898
:101870009446654480225200AE5CE43A7607D9D1A2
:1018800080267600AA5D03273A43AA55026818000D
:1018900008304001121840205071AEE75D01026827
:1018A0009446654480225200AF5C7026E43A374289
:1018B000C0D19036AA5D30273A43AA550268180075
:1018C0000830400112188020107196E7002C17DBB9
:1018D0005D0102689446654480225200AE5CE43AA1
:1018E0007607A7D180267600AA5D04273A43AA5539
:1018F00002681800083040011218402050717CE73F
:101900005D0102689446654480225200AF5C7026F7
:10191000E43A374200D08DE79036AA5D40273A433B
:10192000AA55026818000830400112188020107172
:1019300063E7696880231B060B436B60002279E72D
:10194000DC520000C0060020FFFFFF8F0F230B407A
:1019500049B200290ADB08335B010268D218402132
:1019600051710268D3180122DA71704708335B01A4
:101970000268D218802111710268D3180222DA712C
:10198000F3E70F230B4049B2002907DB0268083355
:101990005B01D3189879C006C00F704702680833FE
:1019A0005B01D31898798006C00FF6E70F230B4030
:1019B00049B2002906DB026808335B01D318102204
:1019C0005A717047026808335B01D31820225A719C
:1019D000F7E730B50F230B4049B200291DDB590151
:1019E0000268521883246400145DE40614D510259F
:1019F000822464001555026852180821FF31515C99
:101A0000890609D5E43C0821FF31545402680833A3
:101A10005B01D31801221A7130BD590102685218B6
:101A200083246400145DA406F6D520258224640076
:101A30001555026852180821FF31515C4906EBD553
:101A4000C43C0821FF315454026808335B01D318A9
:101A500002221A71E0E7000030B50C00083464017E
:101A60000568645D6406640F1C25002C01D1280004
:101A700030BD4C010B4D2D192C002A616A690A4DAD
:101A80002A40626162699B049B0C920B9203134390
:101A90006361036808314901591880234B7100259F
:101AA000E5E7C046C0060020FF3F00F030B50C005F
:101AB000083464010568645D64071C25002C01D1AD
:101AC000280030BD0B4C4D012A51621954689B040B
:101AD0001B09094D2C402343536053689B0B9B0308
:101AE0005360036808314901591840230B710025E0
:101AF000E6E7C046C0060020FF3F00F0094B196032
:101B00005A6809491140802292020A435A605A6871
:101B1000920B92035A600268402182235B00D154E9
:101B200000207047C0060020FF3F00F002681378D5
:101B300002210B43137002689378022BFCD070478C
:101B4000F0B5DE4657464E464546E0B583B0C44B39
:101B50001F683D682B78DB0914D12E8CB6B2002E9D
:101B600000D02DE2AE8BB6B2AB235B00FB5AAA22AB
:101B70005200BD5A1D4035400024BA4FB84B99461B
:101B8000984608E22B8C9BB2002B00D13DE1288CBB
:101B900080B2B54B984704001F2800D935E10300F7
:101BA00008335B01ED18ED79EDB2AB0741D0AF4AD8
:101BB00001238340116899431160030008335B01DE
:101BC0003A68944663440322DA713B18AE331B78BB
:101BD000DB072ED5A64B18703A68030008335B016B
:101BE0009B5C9B079B0F012B00D194E04201A14B12
:101BF0009B185A681201920C90B29D494A805A680B
:101C00009204920C8A805A689B490A405A600028C4
:101C100007D16201974B9B185B689B049B0C944A0D
:101C200053808F4B1868A31C1B01C3185B68904935
:101C300098476B071FD58A4B186802682300083342
:101C40005B019B5C9B065B0F022B75D02300083366
:101C50005B019B5C9B065B0F032B00D19EE0620146
:101C6000844B9B1800229A720368220008325201AA
:101C70009B180422DA712B0715D57C4A0123A34057
:101C8000116899431160764B1868230008335B0193
:101C90000268944663440822DA710319AE331B7854
:101CA0009B0700D594E0EB0615D5704A0123A340AD
:101CB0001168994311606A4B1868230008335B016F
:101CC0000268944663441022DA710319AE331B781C
:101CD0005B0700D58AE0AB0600D42FE1634A0123FD
:101CE000A3401168994311605D4B186823000833C5
:101CF0005B010268944663442022DA710319AE3313
:101D00001B781B0700D419E159490C7024010419F0
:101D1000236B984712E14201564B9B185A68920474
:101D2000920C53494A805A681201920C8A805A6870
:101D3000920B92035A6074E7230008335B019B5CAB
:101D40009B079B0F012B81D161014A4B5B18083324
:101D50009B78DB0700D479E7444A0123A34011684C
:101D6000994311606201434B9B1800229A72230031
:101D700008335B010268944663440422DA71031954
:101D8000AE331B789B0700D475E739490C701023DC
:101D90004B702301C3189B6A98476CE723000833F4
:101DA0005B019B5C9B079B0F012B00D057E76201F7
:101DB000304B9B1800229A72230008335B010268A3
:101DC000D2180421D1710268D31810225A7152E737
:101DD00027490C706201274B9B18DB891F22134097
:101DE0004B702301C3189B6A98475CE720490C702D
:101DF0006201204B9B185B681B019B0C4B802301ED
:101E0000C318DB6A0021984765E7AC8BA4B263076F
:101E100038D50423AB83154B1D6801230120102600
:101E200002E00133082B29D002009A401542F8D075
:101E300039681A0008325201525C9206520F032A86
:101E4000EFD11A0008325201525C9207920F012A18
:101E5000E7D11A000832520189180E71E1E7C04635
:101E600038020020F05200008D410000480200209E
:101E70004C020020C0060020FF3F00F09D33FB5CB9
:101E8000DB0762D423070BD50022AF4B1A60AF4BA0
:101E900018680823026893839D33C35C9B0758D45A
:101EA000630608D5A94B18684023026893836533FD
:101EB000C35CDB0650D4A30608D5A44B18682023C6
:101EC000026893838533C35C1B0748D4E30608D5B7
:101ED0009E4B18681023026893839533C35C5B079D
:101EE00040D423060BD50022974B1A60974B1868F5
:101EF0008023026893832533C35C9B0635D4E305B6
:101F00000CD50022904B1A60904B186880235B0020
:101F1000026893835B3BC35C5B0629D4A3050DD5A4
:101F20000022894B1A60894B186880239B00026845
:101F300093835C3BFF3BC35C7F2B1CD803B03CBC52
:101F400090469946A246AB46F0BD7B68380098475C
:101F500098E783689847A3E743699847ABE7036925
:101F60009847B3E7C3689847BBE783699847C6E7D4
:101F7000C3699847D2E7036A9847DFE723002E3307
:101F80009B00424612689B58714942461068984728
:101F90000134072CD2D06300DB5B334203D04A46C6
:101FA0001268126893832B42F2D0062CE6D1694B5B
:101FB0001B891B09802252001340654A1360DDE72C
:101FC0003C005934FF340023012294465F3291468D
:101FD000503A92460D3A9346B8462F00C3E02A0085
:101FE0003D00474690465B01ED180823FF33EB5C4C
:101FF0005B0615D540220823FF33EA54883BFF3B9C
:1020000042461343544A937160230B4296D0019B7E
:102010001B01FB18E0331B684F49380098478DE7D8
:102020000823FF33EB5C9B06EED520220823FF3309
:10203000EA54494B42469A71E6E73D004746019A09
:10204000130008335B01ED181023EB71BB186133EB
:10205000FF331B78DB0600D470E7100052013D4BC4
:102060009B185B689B049B0C3B490B800301FB188E
:10207000DC331B684046984760E72A003D0047462E
:1020800090465B01ED180823FF33EB5C9B071ED5E0
:1020900002220823FF33EA542F48883BFF3B424685
:1020A00013438371019B5A012A4B9B1810335B68C1
:1020B0009B049B0C43808B0700D13FE7019B0D33B2
:1020C0001B01FB185B6824493800984736E7082352
:1020D000FF33EB5CDB07EED501220823FF33EA5424
:1020E0001D4843468371019B5B011A4AD21853680D
:1020F0009B049B0C038053681B019B0C8380DAE7D5
:102100000822FF329A5C520779D504200822FF3258
:102110009854019842010F4B9B189B7A9B0705D559
:102120000C4B9B189A7A022082439A720A4B4246C1
:102130009A71019B08335B013A6894466344DB79EA
:10214000DB075CD5FAE6C0464802002038020020D2
:102150003C020020C0060020400200200133013470
:10216000082B00D1EAE6DDB2019332001A41614644
:102170001142F3D01A0008325201BA18D279D2B201
:10218000217A1140207801404846104200D026E7CD
:102190005046104200D050E75846104200D06CE73D
:1021A0000C201042DAD02A003D00474690465B01E1
:1021B000EB180822FF329A5C1207A1D504380822D6
:1021C000FF32985401984201134B9B189B7E9B074A
:1021D00005D5114B9B189A7E022082439A76802364
:1021E0005B42424613430D4A9371019B08335B01E6
:1021F0003A6894466344DB799B0700D59EE60C233E
:102200000B4200D19AE6019B1B01FB18D8331B68D7
:1022100002493800984791E6C0060020400200209D
:1022200000220270012343708270C3707047000067
:10223000F0B5CE46474680B583B004000D001600C9
:1022400000236E4A13606E4A106021606D49CA69AE
:1022500020200243CA6101AF7B700122BA70FB707B
:10226000063399463B7039000838674B98469847C3
:102270004B463B7039001920C047B3786A4613704B
:1022800069460620614B98470620614B98472B789A
:10229000012213432B70AB78DB07FCD45D4AD37863
:1022A00003218B4302210B43D370D3780C218B4342
:1022B00008210B43D370584B1B689B03DB0E1F2B6D
:1022C00000D18FE02A8D9B0154490A4013432B858E
:1022D000514B1B685B02DB0E1F2B00D184E02A8D63
:1022E0001F218A4313432B854B4B1B689B015B0FBC
:1022F000072B00D17AE02A8D1B0349490A4013437A
:102300002B8532782978D2017F230B4013432B7021
:1023100071782B7801220A40920004218B431343E9
:102320002B70404B6B62F378012B61D0002B06D1F0
:10233000226813890C218B4304210B4313818022D3
:10234000520000213748384B9847231D2100243183
:10235000002204C38B42FCD12100A43100221A6068
:102360005A609A60DA6010338B42F8D10023A422BD
:10237000A3540132A3542300A6332100AE3100221E
:102380001A701A7201339942FAD12300B83321002E
:10239000D431002204C38B42FCD121005531FF31DE
:1023A00000221A605A609A60DA6010338B42F8D1CA
:1023B0000023AA225200A3520232A352230059330F
:1023C000FF336134FF3400221A701A720133A342C2
:1023D000FAD18022154B1A60002003B00CBC904645
:1023E0009946F0BD1A3B6DE7023B78E7043B82E774
:1023F0002268138908318B431381A0E7480200202B
:102400003802002000040040D53C0000DD3B000005
:10241000513B000000500041246080003FF8FFFF66
:10242000FF8FFFFFC00600207B42000000E100E0BC
:1024300070B582B005000E0000226B46DA80064CB3
:102440006B46991D2800A0470028F9D16B4606333A
:102450001B88337002B070BD5B2E000070B50500A4
:102460008CB2034E21002800B0470028FAD170BD7D
:10247000352E0000F0B591B08023DB0500930023DA
:102480000193FF2269460A8100228B72CB720124DC
:1024900024216846445401314454013143540131EC
:1024A00043540A9305314354013143540593038245
:1024B000C376027602774276132383764277E1234E
:1024C0005B0208931C4B0C931C4B0D9301235B4246
:1024D0000E930F9380235B030393194D194B1D60DB
:1024E000194A1A4B1A601A4A1A4B1A606A461A4954
:1024F00028001A4B98471A4F3B6898680021194EDC
:10250000B0473B6858680021B0472E683000164B32
:1025100098471F2318408440144B1C602A68D369D5
:10252000002BFCD133680222134333601048114B57
:10253000984711B0F0BDC046030016000300170015
:1025400054020020C80700205D240000C4070020BA
:1025500031240000C0070020001C0042F92A0000BE
:10256000A4000020C14200009535000000E100E019
:10257000045300008D42000030B583B00190037E0B
:102580005B0707D40A4D04240120A847019B1B7E4A
:102590002342F9D0074C00232022210001A8064D38
:1025A000A84721000548064B984703B030BDC046F8
:1025B000C5260000C4020020D132000020530000D4
:1025C0008D42000070B58EB0060000240194029484
:1025D0006B461C745C7401259D74DD7424236A466B
:1025E000D4540C22002106A81E4B98471E4B0A9378
:1025F0001E4B0B931E4B0C9301235B420D938023C8
:102600009B0203936B461E70069420236A46D554A2
:102610001575002E01D0174B0693174D6A461749C2
:102620002800174B98472C682000164B98471F230B
:1026300018401E3B8340144A13602A68D369002B5C
:10264000FCD123680222134323600B4C013A0F494B
:1026500020000F4B98473722A35C02210B43A35461
:102660000EB070BD7B42000002001000020011009D
:102670000200120040420F0088020020000C0042BD
:10268000593000009535000000E100E07925000098
:102690006D32000070B506000C000548054DA847D6
:1026A000A2B231000448054B98470548A84770BDC1
:1026B000285300008D42000088020020853200006F
:1026C0005053000030B5084B1C68084A0025802193
:1026D0004902013807D3002CFBD054609560136881
:1026E0000B42FCD0F5E730BD8C00002010E000E08C
:1026F000F0B5C64600B50C00904600280FD1002A60
:1027000011DD8F18094E0A4D306821002B6898475B
:102710000134BC42F8D1404604BC9046F0BD0123D0
:102720005B429846F7E78046F5E7C046C8070020B9
:10273000C0070020F0B5C64600B50E0015000138F0
:10274000022810D8002A11D000240C4B98460C4FB8
:1027500043461868315D3B689847002808DB013420
:10276000A542F5D106E00124644203E0140001E033
:1027700001246442200004BC9046F0BDC80700203C
:10278000C4070020F0B5DE4657464E464546E0B544
:1027900087B08046049116001F000022002300210C
:1027A0008B463F2401202100009601975C4603944C
:1027B0004446059413E02024641A0500E540A84629
:1027C00014E0009C019D121BAB415C464D462C431E
:1027D000A346039C45462C430394013925D320246A
:1027E00064420C19E7D40500A540A84604008C40BB
:1027F000A14692185B4114001D00059E4F463E40C5
:10280000B446049E47463E40B246664657463E435F
:1028100003D00600264332002B00009C019D9D4200
:10282000DBD8CED19442D8D8CBE7039B58461900C9
:1028300007B03CBC90469946A246AB46F0BD10B5E9
:10284000490840230024814202D2180010BD1C0018
:10285000091A631C9BB28842F9D94023FF2CF4D893
:1028600014800023F1E70000F0B583B00F001600DC
:1028700008AA117804004C434022BC4202D910003F
:1028800003B0F0BD002B14D1020008000021194C48
:10289000A04701003A0000230020174CA047002267
:1028A0000123121A8B41120C1B041A43328000229E
:1028B000E5E70022012BF9D10A00002300210D4C8D
:1028C000A04702000B0000920193380000210A4C3F
:1028D000A047050080239B0140229842CFD8790F62
:1028E000F800009A019BA047EA00821AD2B2520374
:1028F0002A43DBE7CD4100008527000010B582B0F8
:1029000004000E4B1B78002B07D0002905D10B4B80
:102910005B78834210D01D200CE001A90C701320BD
:10292000074B98471320074B9847044B5C700122D4
:102930001A70002002B010BD0020FBE7E402002066
:10294000DD3B0000513B0000404B984231D00AD99A
:102950003F4B98424DD03F4B98425AD03E4B984205
:1029600037D0002070473D4B98420CD03C4B9842EA
:10297000F7D1012917D000295DD0022915D00329EC
:1029800015D00020EEE7012907D0002951D00229F7
:1029900005D0032905D00020E4E73248E2E73248B9
:1029A000E0E73248DEE73248DCE73248DAE732482F
:1029B000D8E7012907D000293FD0022905D00329F3
:1029C00005D00020CEE72D48CCE72D48CAE72D489A
:1029D000C8E7012907D0002931D0022905D00329F1
:1029E00005D00020BEE72848BCE72848BAE72848B9
:1029F000B8E7012907D0002923D0022905D00329EF
:102A000005D00020AEE72348ACE72348AAE72348D7
:102A1000A8E7012907D0002915D0022905D00329EC
:102A200005D000209EE71E489CE71E489AE71E48F6
:102A300098E71E4896E7032094E71D4892E71D4853
:102A400090E71D488EE71D488CE7C0460010004205
:102A500000180042001C004200140042000800421E
:102A6000000C0042030005000300060003000700FD
:102A70000300010003001E0003001F000300090003
:102A800003000A0003000B00030011000300120002
:102A90000300130003000D0003000E0003000F00ED
:102AA00003001700030018000300190003000400CE
:102AB000030008000300100003000C0003001600D0
:102AC00030B587B00B4B6A4632CB32C232CB32C202
:102AD000009B83420BD001239A00694652588242E0
:102AE00006D00133062BF7D1002007B030BD0023FC
:102AF000D8B2FAE764530000F0B5DE4657464E46BA
:102B00004546E0B591B005000C00160029600800AC
:102B1000BA4B9847020023680520DB0706D511B0A1
:102B20003CBC90469946A246AB46F0BD23681730A0
:102B30009B07F4D4B249086A971C0123BB400343A6
:102B40000B620FA92D27F35D0B701432D3B20293E1
:102B50001800AC4B98470298AB4B9847F05D0021AA
:102B6000AA4B9847F37A6B712423F35CAB7125234E
:102B7000F35CEB71F37E2B72337F6B722B6898469C
:102B800018009E4B9847143000220E2306A98C464D
:102B900063441A80328A02928023DB019A4200D178
:102BA0009AE00FD9C023DB01029A9A4200D18EE04D
:102BB00080231B029A4200D01BE1032306930023CB
:102BC000079308E080239B019A4200D011E1102373
:102BD00006930F3B079333680593F3689B4673692D
:102BE0000393337E04932623F35C9A4673689946D5
:102BF000002B00D19CE080235B05994500D180E04B
:102C0000737E002B02D0B37E424693730E2306AA36
:102C1000944663441B8842469381059B5A4613435E
:102C2000039A13434A461343029F1F43049B1B020C
:102C30001F4353465B071F432723F35C002B01D13F
:102C400004331F43737E9B02327F52021343727F11
:102C5000120213432422B25C520413432522B25CB5
:102C600012041343B17AF27A114319433389FF2BCB
:102C700000D181E080225204174319432C23F35CD6
:102C8000002B03D1624B9B789B0701D580231F4308
:102C90002A68D369002BFCD1434659602A68D3695E
:102CA000002BFCD143461F600EAB80221A7000221D
:102CB0005A70DA709A70336B0A93736B0B93B36B21
:102CC0000C93F36B02930D9300270AAE63E0082385
:102CD0000693073B07937EE733680593F3689B46AB
:102CE00073690393337E04932623F35C9A467368D7
:102CF0009946002B18D080235B05994501D0002010
:102D000025E02723F35C002B00D079E7336A1F000E
:102D1000C0B2404B984701000E2206AB9C4662446D
:102D200038003D4B984712E0082306930023079391
:102D30002723F35C002B0ED0069B0093079B0E22EB
:102D400006A98C466244B16A306A344FB8470028FD
:102D500000D0E4E654E7336A1F00C0B22D4B984719
:102D60000100069B0093079B0E2206A8844662443E
:102D700038002A4FB847EAE7F37E002B00D17DE701
:102D80008023DB041F4379E72000254B984707E0A9
:102D90000137042F0DD0F9B2BB0098590028F3D0A9
:102DA000431CF5D00EA90870000CC0B21D4B98470B
:102DB000EEE70023EB602B616B61AB61EB612B6293
:102DC000AB626B620022EB85AB853033EA54013392
:102DD000EA540133EA540133EA542868074B984710
:102DE00004001149114B9847A400114BE5500020F5
:102DF00095E61023069300230793ECE6C12A000012
:102E000000040040DD3B0000513B0000FD280000B5
:102E100000200041F93B00003F2800006928000025
:102E200049290000D53C0000C52E0000593500009E
:102E3000D0070020C2791C23002A01D11800704756
:102E4000C28D92B2173B002AF8D102681185022187
:102E5000137E0B42FCD00023F0E782791C23002A6A
:102E600001D118007047828D92B2173B002AF8D129
:102E70000268107E4007F4D5538BDBB298061DD054
:102E8000980703D5022353831833EAE7580703D57D
:102E9000042353831A33E4E7D80703D5012353836C
:102EA0001233DEE7D80603D5102353833233D8E735
:102EB0009B0603D5202353832133D2E7138D0B8048
:102EC0000023CEE7F8B58000624BC5582C68E36953
:102ED000002BFCD1237EA67D1E403023EB5C3122EB
:102EE000AF5C1F40F30722D5EB8D9BB2002B1CD0AB
:102EF000AA6A1378DBB2511CA962697901290ED044
:102F00009BB2DB05DB0D2385EB8D013B9BB2EB8593
:102F1000002B0CD1013323750133A37507E05178E1
:102F200009020B430232AA62EBE701232375B307C0
:102F300006D50223237500223133EA54FB071AD445
:102F4000730765D5AB8D9BB2002B5FD0638BDBB273
:102F50001A0714D43F221340002B34D09A0711D5FE
:102F60001A223223EA54303B63837B0750D5280072
:102F70006B6998474CE02800EB689847E0E73722F8
:102F80001340E9E75A0705D51E223223EA542E3BA7
:102F90006383EAE7DA0705D513223223EA54313B8B
:102FA0006383E2E7DA0605D542223223EA54223B64
:102FB0006383DAE720221A42D7D021323223EA543F
:102FC000123B6383D1E7238DDB05DB0DDAB2696A3F
:102FD0000A706A6A511C69626979012910D0AB8D47
:102FE000013B9BB2AB85002B12D104332375002229
:102FF0002E33EA54BB070BD528002B69984707E00E
:103000001B0A53706B6A01336B62E8E70423237574
:10301000F30604D5102323752376FB060ED4B306DE
:1030200004D52023237523763B070BD4330704D51F
:10303000082323752376BB0608D4F8BD2800EB6966
:103040009847ECE72800AB699847EFE72B6A280020
:103050009847F2E7D0070020F0B58BB005000C00D0
:10306000160029600B681C209B0701D50BB0F0BD32
:103070000B681738DB07F9D408006F4B98476F4A85
:10308000116A871C0123BB400B43136209A9242743
:10309000F35D0B701430C3B201931800684B98476E
:1030A0000198684B9847F05D0021674B984733784B
:1030B000012B3FD03378002B03D123680822134320
:1030C00023602B000C3329002831002204C38B42DB
:1030D000FCD10023EB62AB620024AB862B86363337
:1030E000EC540133EC540133EC54353B6B722C71CE
:1030F0002868514B984707005449554B9847BF00E3
:10310000544BFD502F6804AB80221A705C707F3ADC
:103110009A70DC703378002B02D1002204AB9A70D5
:10312000B36A0593F36A0693336B0793736B089343
:1031300000240BE023680C2213432360BAE7380015
:10314000454B98470AE00134042C10D0E1B2A300AB
:1031500002AA0C201218D0580028F0D0431CF2D03C
:1031600004A90870000CC0B23C4B9847EBE73378D9
:103170006B71337CAB71B37CEB71337D2B720022AE
:1031800002ABDA803378012B12D03378002B26D1B2
:10319000B069B28B7B6AF17F0904B47F2143194384
:1031A00079622023F35C002B1BD040231A4318E0E4
:1031B0002868214B98471430C0B2294B984701002A
:1031C00002AB9A1DB069274B984703001720002BCC
:1031D00000D04BE702AB06331B783B73D5E70022E8
:1031E00000207368B1680B43F1680B430343317CE3
:1031F0000A43717C002903D11B498978890701D5CD
:1032000080210B43B17C002902D0802189020A432E
:10321000F17C002902D0802189000A43317D0029F8
:1032200002D0802189010A4339680B433B607B68E7
:103230001A437A60002019E7C12A00000004004008
:10324000DD3B0000513B0000FD2800003133000051
:1032500059350000D007002049290000D53C000066
:10326000F93B00003F28000000200041931C9B0018
:10327000C31859603621012393401A00435C13435D
:103280004354704710B51723002A01D1180010BD10
:103290002133C45C333B052CF8D082864286C16260
:1032A00005223333C254373B437203684279002A04
:1032B00002D102321A769A75C279002A03D101220C
:1032C0009A750023E2E705229A750023DEE70000E5
:1032D00030B51724002A01D1200030BDC57905344E
:1032E000002DF9D01C34055D333C052DF4D00F4C76
:1032F000238002864286816205223823C25400233D
:10330000437203684279012A09D0002A0CD10232A3
:103310001A7606321A7606329A750024DCE7427A6B
:1033200051424A410432F7E70422F5E7CC07002076
:10333000F8B58000854BC45826683723E35C3622F5
:10334000A75C1F40337EB57D1D40EB072ED563790A
:10335000012B25D0002B29D1637A002B26D02168A0
:10336000E26A1378DBB2501CE062A079012800D138
:1033700069E09BB2DB05DB0D8B62A38E013B9BB248
:10338000A386A38E9BB2002B10D101333375637AD1
:10339000012B0BD1E379002B08D10233B37505E083
:1033A000637A002B3ED0637A002BD8D16B0711D5FE
:1033B000738B5B0751D5637A012B08D01E2238230B
:1033C000E254353B6372023333753B0741D4B36A31
:1033D00004237383AB0715D56379002B0ED1073314
:1033E0003375053B3376013363720023A38623864E
:1033F00038330022E254FB0600D57FE06379012BCD
:1034000000D17FE02B0708D56379002B05D1083365
:1034100033753376BB0600D58AE06DB2002D00DA35
:103420008AE0F8BD4A4B1B88B362638E013B9BB2B6
:103430006386638E9BB2002B01D1013333756379B0
:10344000012BB0D086E75078000203430232E262DB
:1034500090E72000A3699847B9E7637A012B27D04A
:1034600023689B6ADB05DB0DDAB2A16A0A70A26AE7
:10347000511CA162A179012933D0238E013B9BB25B
:103480002386238E9BB2002BA4D100223833E25432
:10349000343B3375637A022B29D0637A002B00D03A
:1034A00098E7BB0700D495E720002369984791E788
:1034B00023689B6A638E013B9BB26386638E9BB2DB
:1034C000002B00D086E70433337500223433E254F6
:1034D000353B6372FB0700D47CE72000E368984724
:1034E00078E71B0A5370A36A0133A362C5E77B0721
:1034F00000D46FE72000636998476BE72000E36919
:1035000098477BE7637A012B00D086E7E379002BAD
:1035100000D082E702333375013363720022353302
:10352000E254FB0700D46DE72000E368984769E7A1
:103530002000236A984770E78023337533767B0633
:1035400000D46EE7636A200098476AE7D00700203E
:10355000CC07002070470000F0B50A4B1B78002B09
:103560000CD1094F094E0A4D0024DE515A1914603E
:103570000433182BF9D10122024B1A708000024B40
:10358000C150F0BDE6020020E802002055350000E1
:10359000D007002000B583B009236A4613700133B9
:1035A0005370013393700133D370013313710133BE
:1035B0005371034B98476B46185603B000BDC04685
:1035C000C12A000010B5024B1B680020984710BDAF
:1035D000E802002010B5024B5B680120984710BD3F
:1035E000E802002010B5024B9B680220984710BDEE
:1035F000E802002010B5024BDB680320984710BD9D
:10360000E802002010B5024B1B690420984710BD4A
:10361000E802002010B5024B5B690520984710BDF9
:10362000E8020020704700000C4B1B68002B06D1FD
:10363000EFF31083002B07D00022094B1A70074AC2
:10364000136801331360704772B6BFF35F8F0022B7
:10365000044B1A700132024B1A70F0E7000300208D
:103660000403002090000020084B1A68013A1A60F9
:103670001B68002B09D1064B1B78002B05D00122BB
:10368000044B1A70BFF35F8F62B6704700030020CF
:10369000040300209000002010B5082803D8800003
:1036A0001C4B1B589F46002032E01B4B18692FE033
:1036B0001A4B1B6A9B059B0F1948D84028E0164BF4
:1036C000586925E0144B1B6800209B0720D513493F
:1036D0001022CB681A42FCD00F4B1A6824231340E7
:1036E000042B01D00F4813E000200F4B98470A4BE2
:1036F0009B681B041B0C58430AE05023074AD35C09
:1037000000205B0704D5044BD86801E0802000024C
:1037100010BDC0467C530000080300200008004094
:1037200000127A00006CDC02F93B000070B50C4915
:103730000B6A047885784078012210408001402689
:10374000B34303432A40D20180208343134303221F
:10375000224012020348034013430B6270BDC0466F
:1037600000080040FFFCFFFF10B5037A9B061B0C0E
:1037700042899205920D134318494B608379C279AF
:10378000134342888488224313434278D20113436F
:103790000B600378042B11D0202B0ED1037B9B06EA
:1037A000028A1343C28912040D490A4013430B4A8B
:1037B000936011680B4B0B43136010BD037B9B069A
:1037C000028A1343C289120405490A401343034A7B
:1037D0009360136804210B431360EEE70803002095
:1037E0000000FF0324040000082803D88000254BB4
:1037F0001B589F46172044E0234A136A02210B43BB
:10380000136200203DE0204A936902210B4393613B
:10381000002036E01C4A138A02210B431382002049
:103820002FE0194A938A02210B439382002028E05B
:1038300016490B68022213430B60134B9A8419003C
:103840000E32CB681A42FCD0104A91680E4BD962F6
:1038500052689A6200229A8419001032CB681A4288
:10386000FCD00A4B1B689BB2074A9384002008E0F7
:10387000054944228B5C022003438B54002000E066
:1038800000207047A05300000008004008030020FB
:10389000F0B58BB0C222D200354B9A60354A5368DE
:1038A0001E218B435360022201AB1A700024324D5B
:1038B000E0B201A9A8470134252CF9D105AB0022BB
:1038C000002159809A71DA71203119705A702B4B8E
:1038D0001B689B0E3F2B48D005A803720727077370
:1038E0000A23C381264B4381FF3B8380254B038200
:1038F000254B984704A80024447001258570047066
:10390000224B98470620224EB047224B984701A9E8
:103910004D604C700C720F704D7201201E4B984719
:1039200001201E4B98470720B04711491022CB6851
:103930001A42FCD00E4A938C80210B439384184A80
:103940000023137253729372D37201A901224A6049
:103950004B7005320A700B724B7200200E4B984769
:1039600000200E4B98470BB0F0BD203BB4E7C0469B
:103970000008004000400041DD3B00002460800062
:10398000FF01000080BBFFFF693700002D370000FA
:10399000E9370000A5390000C9390000813A00006C
:1039A00000040040064A936908210B4393610122F9
:1039B000044B1A7019000B781342FCD17047C046B3
:1039C00000040040000C004070B5060004000D78B3
:1039D0002D0205434B78002B02D08023DB021D43D0
:1039E0004B7A002B02D080231B031D43486801281B
:1039F00010D9431E184234D1022830D902230022A4
:103A000001325B009842FBD812023243140080233B
:103A10005B031D430B7A002B02D080239B031D43C5
:103A2000134A53785BB2002BFBDB124B9847124BC7
:103A30001E700F4A53785BB2002BFBDB0C4B9C6073
:103A40001A0053785BB2002BFBDB094A53688021D4
:103A500049020B401D435560084B984770BD00223A
:103A6000D2E70402344380239B021D43D2E7C046C1
:103A7000000C004029360000080C004069360000A8
:103A800010B504000B4A53785BB2002BFBDB0A4BEA
:103A900098470A4B1C70074A53785BB2002BFBDB3C
:103AA000044A516880235B020B435360044B9847E0
:103AB00010BDC046000C004029360000040C004038
:103AC0006936000070B504001A4A53785BB2002BC7
:103AD000FBDB194B9847194B1C70164A53785BB2A5
:103AE000002BFBDB134E7068C004C00E144B9847CC
:103AF0000500124B1C707668F602F60F114B1C7015
:103B00000C4A53785BB2002BFBDB0A4B9C68240207
:103B1000240C0D4B9847002E07D1012C07D921000A
:103B200028000A4B9847050001E00134E5402800D1
:103B300070BDC046000C004029360000040C004057
:103B400099360000080C004069360000A13E0000D4
:103B500010B50400064B9847064B1C70064A538864
:103B60008021C9010B435380044B984710BDC046C8
:103B700029360000020C0040000C004069360000AD
:103B800010B504000F4B98470F4B1C700F4A538819
:103B90001B05180F53880E490B40538053880D495D
:103BA0000B40538011008022D2014B881342FCD17C
:103BB00006494A8803020648024013434B80064BDD
:103BC000984710BD29360000020C0040000C004050
:103BD000FFF0FFFFFFBFFFFF6936000010B50C7854
:103BE00024020443024B9847A4B2024B5C8010BDF0
:103BF000813B0000000C004010B50400064B9847C4
:103C0000064B1C70064B5C882405240F054B984717
:103C10002000054B984710BD29360000020C0040DB
:103C2000000C004069360000C53A000030B5D3787A
:103C3000002B35D11378802B29D01B0680246402F9
:103C4000234354780225AC4306D19478002C20D12C
:103C50008024A402234341605478013C012C1CD9E8
:103C60000D042D0CA024E4052C431C4384620D0C90
:103C7000D02424062C431C438462D478002C22D107
:103C80005B031CD59378012B1ED0416117E0002304
:103C9000D7E7C024E4022343DDE70D4C2340DFE7F0
:103CA00041600C04240CA023DB05234383620C0C2D
:103CB000D0231B0623438362D378002B03D1537890
:103CC000013B012B02D930BD8161F8E78160FAE741
:103CD000FFFFFBFF10B50A00C1090023002904D132
:103CE0004309DB0105498C4663441F242040012120
:103CF00081401800024B984710BDC0460044004167
:103D00002D3C00007047000010B5054B9847054B4F
:103D10009847054B9847054B9847054B984710BD6A
:103D20009138000025360000053D0000D508000050
:103D3000053D0000FEE70000F8B52A4A2A4B9A42EA
:103D400011D01A00294B9A420DD2294A03339B1AEB
:103D50009B0801339B000022234822498C58845041
:103D600004329A42FAD1234A234B9A420AD2D343CD
:103D700021495B1803218B4304339B18002102C2A5
:103D80009342FCD11D4AFF211D4B8B439360FD39AB
:103D900090235B001B4AD1501B4AD3780325AB43C9
:103DA00002242343D370D3780C27BB430826334324
:103DB000D370164B987B3022904320221043987387
:103DC000997BB943314399739A7BAA4322439A73EF
:103DD0000F4A536880210B4353600E4B98470E4B9C
:103DE0009847FEE77C5400000000002008010020F6
:103DF0000400002008010020EC07002000ED00E096
:103E000000000000007000410050004100480041E7
:103E10000040004121420000593E00000300064AD4
:103E20001268002A04D0044A1068C318136070474F
:103E30000249014A1160F6E720030020F027002024
:103E400001204042704780239B014B600020704757
:103E5000012070470020704710B50A4B9847012297
:103E6000094B1A70BFF35F8F62B6084B9847012069
:103E7000074B984710210748074B9847074B98472F
:103E8000FEE7C046093D00009000002075240000B8
:103E9000C52500009400002095260000490100007F
:103EA000002243088B4274D303098B425FD3030A79
:103EB0008B4244D3030B8B4228D3030C8B420DD38C
:103EC000FF22090212BA030C8B4202D3121209021A
:103ED00065D0030B8B4219D300E0090AC30B8B4258
:103EE00001D3CB03C01A5241830B8B4201D38B0306
:103EF000C01A5241430B8B4201D34B03C01A5241AB
:103F0000030B8B4201D30B03C01A5241C30A8B42ED
:103F100001D3CB02C01A5241830A8B4201D38B02D8
:103F2000C01A5241430A8B4201D34B02C01A52417C
:103F3000030A8B4201D30B02C01A5241CDD2C309EE
:103F40008B4201D3CB01C01A524183098B4201D36A
:103F50008B01C01A524143098B4201D34B01C01A55
:103F6000524103098B4201D30B01C01A5241C308CD
:103F70008B4201D3CB00C01A524183088B4201D33C
:103F80008B00C01A524143088B4201D34B00C01A28
:103F90005241411A00D20146524110467047FFE794
:103FA00001B5002000F0F0F802BDC0460029F7D0AE
:103FB00076E7704703460B437FD4002243088B42C9
:103FC00074D303098B425FD3030A8B4244D3030BA0
:103FD0008B4228D3030C8B420DD3FF22090212BA65
:103FE000030C8B4202D31212090265D0030B8B42E1
:103FF00019D300E0090AC30B8B4201D3CB03C01ACB
:104000005241830B8B4201D38B03C01A5241430BA5
:104010008B4201D34B03C01A5241030B8B4201D395
:104020000B03C01A5241C30A8B4201D3CB02C01A00
:104030005241830A8B4201D38B02C01A5241430A78
:104040008B4201D34B02C01A5241030A8B4201D367
:104050000B02C01A5241CDD2C3098B4201D3CB010E
:10406000C01A524183098B4201D38B01C01A5241BD
:1040700043098B4201D34B01C01A524103098B42C1
:1040800001D30B01C01A5241C3088B4201D3CB00AC
:10409000C01A524183088B4201D38B00C01A52418F
:1040A00043088B4201D34B00C01A5241411A00D23F
:1040B00001465241104670475DE0CA0F00D04942A8
:1040C000031000D34042534000229C4603098B4218
:1040D0002DD3030A8B4212D3FC22890112BA030AA0
:1040E0008B420CD3890192118B4208D38901921122
:1040F0008B4204D389013AD0921100E08909C309A7
:104100008B4201D3CB01C01A524183098B4201D3A8
:104110008B01C01A524143098B4201D34B01C01A93
:10412000524103098B4201D30B01C01A5241C3080B
:104130008B4201D3CB00C01A524183088B4201D37A
:104140008B00C01A5241D9D243088B4201D34B0095
:10415000C01A5241411A00D20146634652415B10D7
:10416000104601D34042002B00D5494270476346B8
:104170005B1000D3404201B5002000F005F802BDFD
:104180000029F8D016E770477047C0464142084002
:104190001C2101231B04984201D3000C10391B0A77
:1041A000984201D3000A08391B09984201D300093B
:1041B000043902A2105C401A7047C0461B1C1D1D2A
:1041C0001E1E1E1E1F1F1F1F1F1F1F1FF0B5CE46C6
:1041D000474615042D0C2E0080B50704140C3F0C27
:1041E0009946030C7E435D43674363437F19340C58
:1041F000E4199C46A54203D980235B029846C44437
:104200004B46514343433604360C250C2404654485
:10421000A4195918491920000CBC90469946F0BDC4
:1042200070B500260C4D0D4C641BA410A64209D19C
:10423000002601F013F90A4D0A4C641BA410A64293
:1042400005D170BDB300EB5898470136EEE7B300D7
:10425000EB5898470136F2E76854000068540000B4
:10426000685400006C540000002310B59A4200D13D
:1042700010BDCC5CC4540133F8E7030082189342AC
:1042800000D1704719700133F9E700000FB40B4BF0
:1042900013B51C68002C05D0A369002B02D12000A7
:1042A00000F0BCF905AB049AA1682000019300F06E
:1042B00091FB16BC08BC04B01847C046A4000020FF
:1042C0004A424A41802310B55200DB0000F002F858
:1042D00010BD0000F0B51D004F4B85B01E680400F6
:1042E0000F000092002E05D0B369002B02D13000E0
:1042F00000F094F9494B9C4250D17468009B022B0A
:1043000005D0012B00D984E0002D00DA81E02100E6
:10431000300000F015F9616B002908D02300443308
:10432000994202D0300000F085FA00236363002335
:10433000A3616360A3891B0603D52169300000F0E7
:1043400079FAA389364A1340A381009B022B5AD0E5
:1043500003AB02AA2100300000F0F6F9A38918434C
:10436000A081002D24D1029D280000F059FA01956A
:10437000071E42D1029B0193AB4239D1012040423A
:104380000223A2891343A3810023A36023004733A0
:10439000236023610123636105B0F0BD214B9C4282
:1043A00001D1B468AAE7204B9C42A7D1F468A5E7E5
:1043B000002FD9D0B369002B02D1300000F02EF9C4
:1043C000009B012B03D1A389009A1A43A2810820E4
:1043D000A389276027616561184018D00120184023
:1043E0000023984211D06D42A360A5611800D3E765
:1043F000019800F015FA071EC0D08023A289019D04
:104400001343A381D6E70020BAE7A560C4E7A06004
:10441000C2E701204042BFE7A4000020E8530000AB
:104420005CF3FFFF08540000C8530000F7B58A8909
:1044300005000C00130760D44B68002B04DC0B6CE8
:10444000002B01DC0020FEBDE76A002FFAD000231C
:104450002E682B6080235B011A4034D0606DA389E5
:104460005B0706D56368C01A636B002B01D0236C11
:10447000C01A0200216A00232800E76AB847A18910
:10448000431C06D12B681D2B31D82C4ADA40D307A8
:104490002DD50023636023692360CB0405D5431C1D
:1044A00002D12B68002B00D16065616B2E60002962
:1044B000C8D023004433994202D0280000F0BAF952
:1044C00000206063BFE70123216A2800B847431C2E
:1044D000C5D12B68002BC2D01D2B01D0162B01D1CA
:1044E0002E60AFE74023A2891343A381ABE74023AB
:1044F0000B430120A3814042A5E70F69002FA1D003
:104500000B680F60DB1B01930023920700D14B69FE
:10451000A360019B002B00DC94E7019B3A00216A19
:104520002800A66AB047002803DC4023A289134371
:10453000DFE7019B3F181B1A0193EAE701004020C7
:104540000B6970B505000C00002B01D1002070BD77
:10455000002804D08369002B01D100F05FF80B4BD9
:104560009C4209D16C680C22A35E002BEED0210086
:104570002800FFF75BFFEAE7054B9C4201D1AC68DE
:10458000F1E7044B9C42EED1EC68ECE7E853000005
:1045900008540000C853000010B5024900F0B2F8FA
:1045A00010BDC04641450000002310B50400036063
:1045B0004360836081814366C2810361436183619B
:1045C000190008225C30FFF758FE054B2462636235
:1045D000044BA362044BE362044B236310BDC0464B
:1045E000414F0000694F0000A14F0000CD4F000077
:1045F00070B568254A1E55430E002900743100F03D
:1046000063F9041E08D000212A00016046600C30C6
:10461000A0606832FFF731FE200070BD836913B5DA
:104620000400002B28D18364C3640365134B144A30
:104630001B6882620193984201D1012383612000AB
:1046400000F020F86060200000F01CF8A06020005E
:1046500000F018F80022E06004216068FFF7A4FF72
:1046600001220921A068FFF79FFF02221221E068C2
:10467000FFF79AFF0123A36113BDC046C453000096
:1046800099450000F8B51E4B07001E68B369002B62
:1046900002D13000FFF7C2FF4836B4687368013BAF
:1046A00004D53368002B07D03668F6E70C22A55EE8
:1046B000002D0DD06834F2E704213800FFF798FF91
:1046C00030600028F0D10C2304003B602000F8BDCE
:1046D000012320005B42E3810233A38165662560EC
:1046E000A560656025616561A561082229005C30CF
:1046F000FFF7C3FD6563A563A564E564E6E7C0460F
:10470000C4530000F7B504000700002601914834A7
:10471000002C01D13000FEBD6368A5680093009BAA
:10472000013B009301D52468F2E7AB89012B08D93E
:104730000E22AB5E013304D029003800019B98475C
:1047400006436835EBE7000070B50E001D000E2330
:10475000C95E90B01400002907DA00232B60B389EA
:104760001B0611D48023DB000FE001AA00F026FD18
:104770000028F2DBF022029B12021340054A9B182C
:104780005A4253412B60EDE740230020236010B0D4
:1047900070BDC04600E0FFFFF7B502268B8905001B
:1047A0000C00334206D023004733236023610123EA
:1047B0006361F7BD01AB6A46FFF7C6FF00990700CA
:1047C000280000F081F8002808D10C22A35E9A0589
:1047D000EFD4032293431E43A681E4E70F4BAB6261
:1047E0008023A28920601343A381009B2061636121
:1047F000019B002B0DD00E23E15E280000F0F0FCA1
:10480000002806D00322A38993431A0001231343EF
:10481000A381A0893843A081CBE7C0469945000019
:1048200010B5034B0100186800F04EF810BDC046EB
:10483000A400002070B50500002910D00C1F2368CB
:10484000002B00DAE418280000F0FBFC1D4A136876
:10485000002B05D163601460280000F0F3FC70BDEC
:10486000A34209D9216860188342F3D118685B68B4
:1048700041182160EEE713005A68002A01D0A242D5
:10488000F9D919685818A0420BD12068091858188E
:1048900019608242E0D110685268411819605A606C
:1048A000DAE7A04202D90C232B60D5E72168601813
:1048B000824203D1106852684118216062605C60D6
:1048C000CAE7C04624030020032370B5CD1C9D43D6
:1048D000083506000C2D1ED20C25A9421DD830002B
:1048E00000F0AFFC254A14682100002919D1244C9E
:1048F0002368002B03D1300000F010FB206029005A
:10490000300000F00BFB431C2CD10C233000336033
:1049100000F098FC03E0002DDFDA0C233360002068
:1049200070BD0B685B1B1AD40B2B03D90B60CC1822
:10493000256003E08C420ED163681360300000F004
:1049400081FC200007220B30231D9043C31AE7D0BF
:104950005A42E250E4E74B6863600C00EEE70C005B
:104960004968C2E70323C41C9C43A042E0D0211A3B
:10497000300000F0D3FA431CDAD1C6E7240300204C
:1049800028030020936810B5013B9360002B05DAE3
:104990009469A34208DBCBB20A2B05D01368581CDC
:1049A00010601970C8B210BD00F016FBFBE7F8B537
:1049B00006000F001400D518AC4201D1002007E01A
:1049C00021783A003000FFF7DDFF0134431CF3D1BA
:1049D000F8BD0000F0B59FB006000F00140005936D
:1049E000002804D08369002B01D1FFF717FE7F4B0D
:1049F0009F425CD17768BB891B0762D53B69002B5E
:104A00005FD0002306AD6B6120336B761033AB763D
:104A10000294029C2378002B5DD1029BE31A04933D
:104A20000DD0049B029A39003000FFF7C0FF431CF1
:104A300000D1CCE06A69049B944663446B6123789F
:104A4000002B00D1C3E00122002352426A6002A978
:104A50005432521801342B60EB60AB601370AB65BD
:104A600021780522624800F0E1FB631C9C46002887
:104A700035D12968CB0604D5532302AA20309B18D0
:104A800018700B0704D553232B2002AA9B1818700B
:104A900023782A2B2CD000200A21099B2278303A37
:104AA000092A00D86BE000282AD0099328E0514B4E
:104AB0009F4201D1B7689EE74F4B9F429BD1F76859
:104AC00099E73900300000F0F1FA002899D0012070
:104AD00040421FB0F0BD252B9FD001349AE7444BD4
:104AE0002968C01A012383400B432B606446B7E753
:104AF000059B181D1B680590002B3ADB0993644643
:104B000023782E2B0BD16378621C2A2B3FD1059B77
:104B100002341A1D1B680592002B35DB07932178A0
:104B20000322364800F082FB002807D0334B2A6866
:104B3000C01A4023834013432B6001342178631C47
:104B400006222F480293297600F070FB002844D0FB
:104B50002C4B002B2FD12968059B0722C90528D58E
:104B60009B189343083305936B69039A9B186B61F9
:104B70004FE75B42EB6002230B432B60BFE74B43E5
:104B800001349B18012089E701235B42C6E700231B
:104B900014000A201A006B6021783039092903D9E2
:104BA000002BBCD00792BAE74243013452180123CC
:104BB000F2E70733D5E705AB00933A00124B290023
:104BC000300000E000BF0390039B0133CCD1BB89D0
:104BD0005B0600D57BE70B987BE705AB00933A00BB
:104BE000094B2900300000F07FF8ECE7E8530000A3
:104BF0002854000008540000C85300002E54000040
:104C00003254000000000000AF490000F7B5150065
:104C100001938A680B6900900C00934200DA13003C
:104C200022002B6043321278002A01D001332B601E
:104C300023689B0602D52B6802332B600627236866
:104C40001F4027D0230043331B785A1E934122680C
:104C5000920630D42200019943320098089EB04752
:104C6000431C25D0062320682A68E16803400025FC
:104C7000042B03D18D1AEB43DB171D40A368226977
:104C8000934201DD9B1AED180027BD4220D1002080
:104C900010E00137E3682A689B1A9F42D2DA2200AB
:104CA0000123193201990098089EB047431CF0D1A6
:104CB00001204042FEBD3020E11843310870210040
:104CC0005A1C45310978A218433202331170C1E7EA
:104CD000220001231A3201990098089EB047431C14
:104CE000E6D00137D1E70000F0B58BB006920A009C
:104CF00043320793059004920A7E0C00109B6E2AA3
:104D000000D18FE017D8632A2CD008D8002A00D110
:104D100099E0582A54D026004236327029E0642A9D
:104D200001D0692AF7D121681A68080623D5111D18
:104D30001960156825E0732A00D188E008D86F2A29
:104D400029D0702AE7D1202209680A43226003E0B3
:104D5000752A20D0782ADED12200782145321170C0
:104D60006C4A30E00E001A684236111D1960136853
:104D70003370012379E04906D9D5111D196000234C
:104D8000D55E002D03DA2D23049A6D421370624B19
:104D90000A2703932FE020681968050603D5081D2C
:104DA00018600D6805E04006F9D50D68081D18600B
:104DB000ADB2594B082703936F2A18D00A2716E083
:104DC00045310A70544A03921A682168101D186010
:104DD0001568080622D5CB0702D520231943216088
:104DE0001027002D03D1202322689A43226023003C
:104DF000002243331A706368A360002B5CDB04223B
:104E0000216891432160002D58D1049E002B64D06D
:104E10002600039B42361B7833705EE04806DAD5E5
:104E2000ADB2D8E709681A68080605D5111D1960E2
:104E3000136862691A6006E04906F7D5111D19600A
:104E40001368A28A1A800023049E236154E01A6822
:104E5000111D1960166800216268300000F0E6F943
:104E6000002801D0801B6060636823610023049ADE
:104E7000137041E02369320006990598079DA84701
:104E8000431C43D0236800259B070FD4099BE0688F
:104E900098423DDA18003BE02200012319320699BE
:104EA0000598079EB047431C30D00135E368099A46
:104EB0009B1A9D42F0DBE9E7002DA9D0049E280053
:104EC0003900FFF773F8039B013E5B5C28003370E9
:104ED0003900FEF7E5FF051EF1D1082F09D123683F
:104EE000DB0706D563682269934202DC3023013E6A
:104EF0003370049B9B1B2361079B09AA009321002D
:104F0000069B0598FFF782FE431CB3D10120404267
:104F10000BB0F0BD4A54000039540000002370B5B6
:104F2000064C050008002360FEF778FF431C03D100
:104F30002368002B00D02B6070BDC046E80700201E
:104F400070B50C000E25495F00F07EF9002803DBE8
:104F5000636D1B18636570BDA389024A1340A3816A
:104F6000F9E7C046FFEFFFFFF8B51F008B8905008A
:104F70000C001600DB0505D50E23C95E00220223B6
:104F800000F040F9A389054A28001340A3813200AC
:104F90000E23E15E3B0000F075F8F8BDFFEFFFFF68
:104FA00070B50C000E25495F00F02CF9A389421C56
:104FB00003D1054A1340A38170BD802252011343DF
:104FC000A3816065F8E7C046FFEFFFFF10B50E2331
:104FD000C95E00F0E1F810BDF8B505000E00140040
:104FE000002804D08369002B01D1FFF717FB224B67
:104FF0009C422DD16C68A369A360A3891B0731D59E
:105000002369002B2ED023682269F7B2981A6369AE
:10501000F6B2984205DB21002800FFF791FA00283C
:1050200026D1A3680130013BA36023685A1C22608B
:105030001F706369984204D0A389DB071AD50A2E32
:1050400018D121002800FFF77BFA002812D00FE0CA
:105050000A4B9C4201D1AC68CDE7094B9C42CAD1B6
:10506000EC68C8E72100280000F020F80028CAD02A
:10507000012676423000F8BDE853000008540000D5
:10508000C853000070B50500080011000022064C4E
:1050900022601A00FDF74EFB431C03D12368002B4E
:1050A00000D02B6070BDC046E8070020364B70B5BD
:1050B0001D6806000C00002D05D0AB69002B02D145
:1050C0002800FFF7ABFA314B9C420FD16C680C23E0
:1050D000E25E93B219072DD4D90611D40923012019
:1050E000336037331343A381404270BD284B9C4249
:1050F00001D1AC68EBE7274B9C42E8D1EC68E6E7CE
:105100005B0713D5616B002908D023004433994213
:1051100002D03000FFF78EFB002363632422A389B3
:105120009343A38100236360236923600823A2893A
:105130001343A3812369002B0BD1A0218022A389D3
:10514000890092000B40934203D021003000FFF70A
:1051500023FB0123A289134011D00023A3606369BC
:105160005B42A361002023698342BED10C23E25E2F
:105170001306BAD540231343A3810138B5E792073C
:1051800000D46369A360EDE7A4000020E8530000A9
:1051900008540000C8530000002370B5064C0500F9
:1051A00008002360FEF74CFE431C03D12368002B4C
:1051B00000D02B6070BDC046E8070020002370B50A
:1051C000064C0500080011002360FEF73CFE431C5E
:1051D00003D12368002B00D02B6070BDE8070020AE
:1051E000002370B5064C050008002360FEF730FE72
:1051F000431C03D12368002B00D02B6070BDC04638
:10520000E807002070B50500080011000022064CD8
:1052100022601A00FEF71EFE431C03D12368002BF8
:1052200000D02B6070BDC046E8070020C9B28218CC
:10523000904201D10020704703788B42FBD00130AF
:10524000F6E770477047000070B5050008001100D0
:105250000022064C22601A00FDF74AFA431C03D1D3
:105260002368002B00D02B6070BDC046E8070020EB
:105270007573623A2073746172742E2E2E0A0D00BB
:105280007573623A20726573756D696E672E2E2E86
:105290000A0D00007573623A2073757370656E6451
:1052A000696E672E2E2E0A0D00000000010000001E
:1052B00002000000040000000800000000100000D0
:1052C00000200000004000000080000000000100FD
:1052D0000000020000000400000008002017000089
:1052E0002E170000C817000068180000CC18000036
:1052F00004000800700080000100000100020000AE
:10530000030C106053657269616C20636F6E736F7C
:105310006C6520696E6974202121210A0D0000004E
:1053200025730A0D000000007370693A2073656EE2
:1053300064696E672061207061636B6574206F66BD
:10534000206C656E6774683A2025640A0D000000C1
:105350007370693A207061636B65742073656E7455
:105360000A0D000000080042000C0042001000423C
:105370000014004200180042001C0042AA3600003F
:10538000A6360000A63600000C3700000C370000DF
:10539000BE360000B0360000C4360000FA36000009
:1053A00014380000F4370000F437000080380000A3
:1053B0000638000022380000F837000030380000BE
:1053C00070380000A800002000000000000000006D
:1053D00000000000000000000000000000000000CD
:1053E00000000000000000000000000000000000BD
:1053F00000000000000000000000000000000000AD
:10540000000000000000000000000000000000009C
:10541000000000000000000000000000000000008C
:105420000000000000000000232D302B2000686CDD
:105430004C006566674546470030313233343536B7
:1054400037383941424344454600303132333435F0
:10545000363738396162636465660000F8B5C04666
:10546000F8BC08BC9E467047DD000000F8B5C04699
:0C547000F8BC08BC9E467047B500000068
:10547C0095010000BD010000D90100008901000068
:10548C000000000070000020200000200000000040
:10549C00280000208400002009024500010100C002
:1054AC004B0904000000FFFFFF000904000106FF88
:1054BC00FFFF0007058103400001070502034000C0
:1054CC0001070583024000000705040240000007A5
:1054DC00058501000101070506010001010000001E
:1054EC0012010002000000406221010100010000D5
:1054FC00000100000000002004030904401F00000C
:10550C000100000048656C6C6F20576F726C642052
:10551C00210A0D00A800002000000000E853000044
:10552C0008540000C85300000000000000000000F8
:10553C00000000000000000000000000000000005F
:10554C00000000000000000000000000000000004F
:10555C00000000000000000000000000000000003F
:10556C00000000000000000000000000000000002F
:08557C00000000000000000027
:0400000300003D3983
:00000001FF
